:020000040800F2
:1000000000800120F9250008690200086D0200083F
:100010007102000875020008790200080000000063
:100020000000000000000000000000007D02000849
:100030008102000800000000850200088902000813
:1000400041260008412600084126000841260008F4
:1000500041260008412600084126000841260008E4
:1000600041260008412600084126000899020008A0
:1000700041260008412600084126000841260008C4
:1000800041260008412600084126000841260008B4
:1000900025070008412600084126000841260008DF
:1000A0004126000841260008412600084126000894
:1000B0004126000841260008412600084126000884
:1000C0004126000841260008412600084126000874
:1000D0004126000841260008412600084126000864
:1000E0004126000841260008412600084126000854
:1000F0004126000841260008412600084126000844
:100100004126000841260008412600084126000833
:100110004126000841260008412600084126000823
:100120004126000841260008412600084126000813
:100130004126000841260008412600084126000803
:1001400000000000000000000000000000000000AF
:1001500041260008412600084126000841260008E3
:1001600041260008412600084126000841260008D3
:1001700041260008412600084126000841260008C3
:04018000412600080C
:1001880010B5054C237833B9044B13B10448AFF3C9
:1001980000800123237010BDC4010020000000006E
:1001A8009C51000808B5034B1BB103490348AFF342
:1001B800008008BD00000000C80100209C51000814
:1001C800034613F8012B002AFBD1181A013870478F
:1001D800F1EE103A43F08073E1EE103A704700BF39
:1001E80010B501F009FB0121084601F061FB01F09F
:1001F80037FB0028FBD00121002001F059FB01202A
:1002080001F01CFB01280446F9D102461D2101F02A
:100218008FFB2146022001F04BFB192001F00EFB59
:1002280001280446F9D1002001F06AFB042001F0FE
:1002380077FB042001F06CFB204601F02FFC022024
:1002480001F0A2FB01F0A8FB0228FBD1002001F07D
:1002580025FC012001F032FCBDE8104002F020BA74
:10026800704700BFFEE700BFFEE700BFFEE700BF24
:10027800FEE700BF704700BF704700BF704700BF70
:10028800024A136801331360704700BFA85F00205B
:100298000148012104F08CBE00000240000000006B
:1002A8002DE9F04FC84CC94BE2684FF6FF010A40F0
:1002B8001343E360DFB0FFF793FF042001F0E0FD94
:1002C800C34BC44A1B68A2FB03239B09013BB3F140
:1002D800807F09D24FF0E022F020536100210723EC
:1002E80084F823009161136101214FF4C01001F0DB
:1002F800C9FA012001F0E2FB0121B748DFF8589361
:10030800DFF858B301F0BEFA41F62C7001F062FA3A
:100318004FF4FA5001F064FA41F6547001F066FAAD
:100328000121022001F042FAAC48012101F0AAFAA9
:10033800002215461146142001F05CFDA84AA94B7D
:10034800A949AA48009500F0F5FDA84800F026FD47
:10035800A748012101F096FAA648012101F092FA76
:10036800A54B4FF4E074484641A9CDE9414301F05B
:1003780069FCC9F81040A148012101F083FA9C48A2
:1003880001214FF00208CDE9285501F07BFA9C4B7A
:10039800299328A94846CDF8A08001F053FC41A82C
:1003A800CDE94155CDE94355459501F0FDFA419B0D
:1003B8009448DF09944BA3FB07373F09013FBFB2BD
:1003C80040F2E73239461EAC01F0F2FD29468D486D
:1003D80001F0F6FD2046012601F0E4FD4FF4807A95
:1003E8004FF483732360A4F804A022468548A671BD
:1003F800062101F0EBFDBA193241013A92B2814867
:100408007A4F062101F052FE7E48314601F05EFE29
:1004180031467C4801F0C0FD204601F0E3FC41A8CC
:1004280001F0D6FB28A801F037FD7848314601F0E5
:1004380029FA6F48314601F025FA754A4FF42043EE
:10044800C4E900324846214601F0FCFB31464FF42E
:10045800A01001F017FA2A4641460B2001F0CAFC09
:100468000C2231466B4801F069FB6B4801F03AFBFE
:100478006A4B6948419341A91023CDF810A14393D1
:100488004295ADF8145101F0ABFB4FF0807364480E
:10049800CDF8A0A028A9299301F004FD48A1D1E92D
:1004A800000180225F4B22824022C4E90269A4F83D
:1004B80020A0C4F81490C4F81C902283CDE91E0132
:1004C8000FCB0DF1680C0DF12C0E8CE80F008EE8A7
:1004D8000F00554B0893554B0793CDE90948CDE9D3
:1004E8000255534B06934FF4A07A524B05934FF0A5
:1004F800F0090496CDF804A0CDF8009053464A467A
:1005080041A9DBF8000004F0FBF80446CBF8000032
:1005180004F0FAF94849204604F03AFA474B159591
:1005280093E80300464B14931793464B8DF8A41099
:10053800ADF8585028901895ADF864501B68A088FD
:1005480010930A2229A904F023FE28A8FFF738FEF1
:100558003D4B28AA1B88135281191144E0880A22AE
:1005680004F016FE28A8FFF72BFE384B28AA1B8894
:10057800135228A8FFF724FE28A982B2384602F0B1
:1005880017FA0128F5D10026DFF8D4A0DFF8D490B7
:10059800DFF8D4B02E4F1190B04635469AF80030A7
:1005A800002B00F0B680B9F800302A4A12FA83F31B
:1005B8001293BBF80030119A58E000BFAFF30080E7
:1005C800003800400000024000ED00E00003FA059A
:1005D80008000020D34D62101600180017001C00F8
:1005E8000C0000203C000020005C0040B05F0020B0
:1005F80003001800040018000004100101001C008A
:100608000004080100040040598B4F010E001C0033
:100618000004080200000240080002400C380040B4
:1006280000380040B4510008995000089150000863
:100638006D50000831500008B19B3100C4510008CA
:100648003F3F3F00A85F0020CC510008D051000870
:1006580000010020E4010020000C01402492002049
:10066800AC5F0020E0010020A45F00209BB2139340
:10067800BBF8003018FA83F8B9F80030C3F53B53DB
:1006880020339BB2A9F80030A388ABF800508AF851
:100698000050029212AA0192E288009200221146AA
:1006A800204602F029FBE2880395CDE900757B78A6
:1006B800D21A6FF07F4392B20293204614AB0821FE
:1006C80004F0F8FA7B78E288A1880395D21A6FF0D3
:1006D8007F4392B20293204617ABCDE900754908D3
:1006E80004F0E8FA0C4B109A1B689B1A0136B3F514
:1006F8007A7F30460DD314A90A2204F049FD064B2F
:1007080040461B6810930A2217A904F041FD0026F1
:10071800B04600BF42E700BFA85F0020014800F0D4
:1007280017BD00BFB05F002010B5044600F5057185
:1007380000F5037000F06EFE94F80C32B4F8122243
:10074800A4F82222012103F01F038B4284F820120F
:1007580003D0022B0BD02BB110BD2046BDE81040B2
:1007680000F08EBF2046BDE8104000F067BE20466E
:10077800BDE8104000F0A2BF03464FF0000C084649
:10078800022170B562F30F0C83F82012998A1C6855
:10079800186262F31F4CC3F826C08A424FF0000C5F
:1007A8001646A3F81CC004D9A2EB010C1FFA8CFC56
:1007B8000E46997DA3F81AC09E8451B321681B4C3C
:1007C80011F0400F246D1A4918BF06340D6812BF86
:1007D800598A198A0234324645F8146001F0B8FE85
:1007E800124A136840F60F710B4043F4404343F03C
:1007F800800313600D4A136823F4E04323F0400399
:100808009BB283F0300343F4004343F0800313604A
:1008180070BD198A324601F09BFE044B04491B6DDA
:100828000968023341F81360E4E700BF005C004048
:1008380004000020B0F814C1C0F82011002362F3AE
:100848000F0362F31F436245C0F8263188BFA2EB4D
:100858000C024FF00003A0F81C3100B588BF93B21A
:100868004FF0030E094A80F820E2A0F81A31136805
:1008780023F4804323F070039BB283F4405343F482
:10088800004343F0800313605DF804FB005C004004
:1008980010B5847D01680023042280F820220362B9
:1008A800C0F81A308384002C35D00968C1F380124F
:1008B800490623D41E4B1F491B6D0C68018A02335D
:1008C800104644F8132001F043FE194A136840F615
:1008D8000F710B4043F4404343F080031360144A04
:1008E800136823F4E04323F040039BB283F0300302
:1008F80043F4004343F08003136010BD0C4A0D49D4
:10090800126D0C68418A0632184644F812301A46AD
:1009180001F01EFED9E7018A2246204601F018FEA2
:10092800034B044A1B6D1268023342F81340D6E7A2
:10093800005C0040040000200B0619D400EB4113B2
:10094800194A93F80CC1184652F82C3023F4804306
:1009580023F070039BB283F4405343F4004343F005
:10096800800300F5867042F82C300023C37270476C
:1009780001F07F0100EB41130B4A93F80CC01846B5
:1009880052F82C3023F4E04323F040039BB283F069
:10099800300343F4004343F080030C3042F82C301A
:1009A8000023C372704700BF005C00400B0619D4D7
:1009B80000EB4113194A93F80CC1184652F82C3031
:1009C80023F4804323F070039BB283F4805343F4F1
:1009D800004343F0800300F5867042F82C30012371
:1009E800C372704701F07F0100EB41130B4A93F883
:1009F8000CC0184652F82C3023F4E04323F040038F
:100A08009BB283F0100343F4004343F080030C309F
:100A180042F82C300123C372704700BF005C0040CD
:100A2800134A90F80CC152F82C3023F4804323F079
:100A380070039BB248F2800183F480530B4300B5E6
:100A480042F82C3090F80CE04FF0010C80F817C1F8
:100A580052F82E3023F4E04323F040039BB283F096
:100A680010030B4342F82E3080F817C05DF804FBE2
:100A7800005C004070B5844601F07F041D460CEB15
:100A88004413DCF800601A6210469A8A0021AA42D0
:100A980099834FEA441302D2A91A89B215466344CE
:100AA8000CEB441C5983ACF824509A7D92B356F849
:100AB800242012F0400F1E4A28D1198A136D0233E0
:100AC8001C4A03EBC403126842F813502A4601F08B
:100AD8003FFD174A52F8243040F60F710B4043F49B
:100AE800404343F0800342F82430114A52F824303E
:100AF80023F4E04323F040039BB283F0300343F434
:100B0800004343F0800342F8243070BD598A136DC6
:100B18000633D5E7198A2A4601F01AFD044B054A1F
:100B28001B6D1268023303EBC40342F81350DCE771
:100B3800005C00400400002010B5044621B990F87C
:100B48002022032A0BD010BD43689B69002BFAD0E2
:100B580090F82422032AF6D1BDE810401847B0F8CF
:100B680026210B46B0F814118A421FD9521A92B2A4
:100B78009142084628BF10468142A4F81C31A4F8C7
:100B8800262138BF431A114A38BF9BB2A4F81A313C
:100B9800136823F4804323F070039BB283F440531B
:100BA80043F4004343F08003136010BD43681B699E
:100BB80003B198470422002384F8202220461A46CD
:100BC800BDE810401946FFF755BF00BF005C004064
:100BD80070B5044621B990F82032022B0BD070BDB5
:100BE80043685B69002BFAD090F82422032AF6D1D7
:100BF800BDE870401847C28CB0F814C0624520D8D0
:100C0800838C63452CD06368DB681BB194F824227D
:100C1800032A22D0224A052384F82032136823F4B9
:100C2800804323F070039BB283F4405343F40043A2
:100C3800002143F08003C4F82011C4F81A1113608E
:100C480070BDA2EB0C0293B26345C384BDE870404B
:100C5800026A28BF6346FFF70DBF20469847D9E7C9
:100C6800028D9342CFD8B0F822329342CBD90B46AB
:100C78000A46A1840D46FFF7FDFE094AC4F8205133
:100C88001368C4F81A5123F4804323F070039BB20D
:100C980083F4405343F4004343F08003136070BD72
:100CA800005C004001F07F0100EB411C10B5BCF86E
:100CB8001441CCF820219C4238BF1B1B0D4C4FF02F
:100CC8000002ACF81C2138BF9AB254F8213023F442
:100CD800804323F070039BB24FEA411E83F44053D4
:100CE800704443F4004343F08003A0F81A2144F809
:100CF800213010BD005C004001F07F0100EB411085
:100D0800B0F81C01704700BF0B060DD400EB411072
:100D180000F58670837A2BB98378012B0CBF82800B
:100D2800C28070474260704701F07F0100EB4110BC
:100D38000C30EFE711F0800F844600B5006810D141
:100D48000CEB411E4FF0000C0EF586718EF80EC1AB
:100D5800013323F00103CA705DF804EB0B8101F045
:100D6800D3B901F07F010CEB411E4FF0010C0EF1DD
:100D78000C018EF80EC0EBE70B0606D400EB411110
:100D880001F58671006801F053BB01F07F0100EBAB
:100D980041110C31006801F04BBB00BF006801F045
:100DA800A9B900BF006801F005BC00BF30B5002339
:100DB800012240F2022140F2011540F2033440F2D0
:100DC800044E40F2055C827380F82E20A0F84C1087
:100DD80080F84E2080F86E2080F88E2080F8AE20B3
:100DE8008381036243830361838285850364438728
:100DF800036383860366A0F85A300365A0F854306D
:100E0800C0F88030A0F87A300367A0F87430C0F8D2
:100E1800A030A0F89A30C0F89030A0F89430A0F82C
:100E28006C40A0F88CE0A0F8ACC0A0F84C1180F899
:100E3800CE2080F8EE2040F2066140F20772C0F83A
:100E4800C030A0F82C51A0F8BA30C0F8B030A0F8E3
:100E5800B430C0F8E030A0F8DA30C0F8D030A0F8EC
:100E6800D430C0F80031A0F8FA30C0F8F030A0F85B
:100E7800F430A0F80C3180F80E31C0F82031A0F819
:100E88001A31C0F81031A0F8143180F82E31C0F8AA
:100E98004031A0F83A31C0F83031A0F8343180F848
:100EA8004E31C0F86031A0F85A31C0F85031A0F87E
:100EB800CC10A0F8EC20A0F85431A0F86C41A0F8B0
:100EC8008CE180F86E31C0F88031A0F87A31C0F832
:100ED8007031A0F8743180F88E31C0F8A031A0F8D4
:100EE8009A31C0F89031A0F89431A0F8ACC180F8DC
:100EF800AE31C0F8C031A0F8BA31C0F8B031A0F8AE
:100F0800B431A0F8CC1180F8CE31C0F8E031A0F8A7
:100F1800DA31C0F8D031A0F8D431A0F8EC2180F84B
:100F2800EE31A0F8F431C0F80032A0F8FA31C0F878
:100F3800F03130BDF0B5844600244FF0010ECCE905
:100F4800012340F2022740F2011340F2033640F237
:100F58000445CCF800108CF824E2ACF80C408CF86E
:100F68000EE0CCF82040ACF81A40CCF81040ACF8B1
:100F78001440ACF82C308CF82EE0CCF84040ACF89B
:100F88003A40CCF83040ACF834408CF84EE0CCF81D
:100F98006040ACF85A40CCF85040ACF854408CF85B
:100FA8006EE0CCF88040ACF87A40CCF87040ACF8F1
:100FB80074408CF88EE0CCF8A040ACF89A40ACF8BD
:100FC8004C70ACF86C6040F20662ACF88C50084685
:100FD800ACF82C3140F2055140F20773CCF8904040
:100FE800ACF894408CF8AEE0CCF8C040ACF8BA400D
:100FF800CCF8B040ACF8B4408CF8CEE08CF8EEE019
:10100800CCF8E040ACF8DA40CCF8D040ACF8D440AA
:10101800ACF8F440CCF80041ACF8FA40ACF8F04039
:10102800ACF8F240ACF80C418CF80E41CCF82041F9
:10103800ACF81A41CCF81041ACF814418CF82E41A8
:10104800CCF84041ACF83A41CCF83041ACF83441E6
:10105800ACF8AC10ACF8CC20ACF8EC30ACF84C7177
:10106800ACF86C61ACF88C518CF84E41CCF860410E
:10107800ACF85A41CCF85041ACF854418CF86E4168
:10108800CCF88041ACF87A41CCF87041ACF87441A6
:101098008CF88E41CCF8A041ACF89A41CCF890413C
:1010A800ACF894418CF8AE41CCF8C041ACF8BA41E8
:1010B800CCF8B041ACF8B4418CF8CE41CCF8E04162
:1010C800ACF8DA41CCF8D041ACF8D4418CF8EE4118
:1010D800ACF8AC11ACF8CC21ACF8EC31ACF8F4417C
:1010E800CCF80042ACF8FA41ACF8F241ACF8F04167
:1010F800BDE8F04000F0F0BF10B5044601F06EFA0C
:101108002046FFF753FE402280212046FFF7FCFDD2
:10111800802200212046FFF7F7FD002211464023D8
:101128002046FFF707FE4023002280212046FFF7D4
:1011380001FE0021206801F033FA6368012184F878
:1011480024121B6A1BB12046BDE81040184710BD89
:101158002DE9F04F0768D7F84480D7F840B018F465
:10116800004F83B0054600F08E807C6C220440F16D
:101178008A80A64EDFF898A2CDF800803B4627E08B
:1011880056F8243048F60F72134046F82430336D71
:10119800DAF80020023303EBC403284652F8132080
:1011A80005EB4413C2F30902196A9A830A441A62C6
:1011B8005B8B214613B1002C40F0B180FFF708FD8E
:1011C80095F82432022B7FD07C6C230459D52B68E8
:1011D80004F00F0453F824201306D1D410057FD44B
:1011E8001104F1D5A30003F1804303F5B84305EBDF
:1011F8004410196821F070010905090D196090F86B
:1012080016114FEA4419002900F0A7805204316DE5
:10121800019340F1908001EBC401DAF8002002311B
:1012280052F81120B0F81011D0F82001C2F30908C3
:10123800424601F0A1F9019B196840F60F70014080
:1012480041F4004141F0C0011960A944B9F81C31CA
:10125800D9F820114344A9F81C31B9F81A3141448E
:10126800C9F8201133B1B9F81401404502D8002C4F
:1012780040F0C58021462846FFF75EFC7C6C2304BD
:10128800A5D4DDF8008018F4806F4BD118F4007FE6
:1012980003D01BF4007F40F0878018F4807F03D0D0
:1012A8001BF4807F40F08D8018F4006F03D01BF48E
:1012B800006F40F08C8018F4805F02D01BF4805FD0
:1012C8005DD103B0BDE8F08F95F8261200293FF4F0
:1012D8007BAF286801F064F9002385F8263273E7AC
:1012E800336DDAF80020063303EBC40305F5057007
:1012F80052F8132005EB4413C2F30902B3F8121194
:10130800A3F81C2101F038F9336823F070031B059A
:101318001B0D214633602846FFF706FA54E7FFF70E
:10132800A9FB4DE738464FF4806101F05DF9284686
:10133800FFF7E2FEAAE70631DAF8002001EBC40164
:1013480052F81120B0F81211D0F82001C2F30908A0
:10135800424601F011F9019B6EE7336DDAF800207F
:10136800B0F81211D0F82001063303EBC40352F889
:101378001320C2F30908424601F0FEF865E7286821
:1013880001F022F995F825226B6885F824221B6A5A
:1013980013B10321284698474FF48051384603B0CB
:1013A800BDE8F04F01F020B94FF40071384601F064
:1013B8001BF96B68DB69002B3FF46FAF2846984731
:1013C8006BE74FF48071384601F00EF96CE74FF483
:1013D8000061384601F008F995F8243285F825327D
:1013E800042385F824322846FFF7DCFC6B681B6A67
:1013F800002B3FF460AF0221284698475BE70A4676
:1014080028462146FFF74EFCDEE600BF005C0040A0
:10141800040000200B7803704B784370CA788B78EF
:1014280003EB022343804A790B7903EB0223838081
:10143800CA798B7903EB0223C380704738B590F8DB
:101448000C3213F0600F04461BD190F80D32092BB3
:1014580012D8DFE803F03F54116F117E0511991D72
:10146800B0F80E32190A022900F0DE80032900F0D4
:10147800BB80012900F099802046FFF7D1FA0020AF
:1014880038BD436800F503719B689847002038BD54
:101498007A4DB0F8102290F80E322B70002AEBD15A
:1014A800B0F81222002AE7D190F82422022A00F08C
:1014B800BF80032AE0D1002B40F0C780426880F843
:1014C8002932022180F82412536898472046FFF7F2
:1014D800DFF9D4E790F82432023B012BCCD890F8FE
:1014E80027322BB1B0F82A3243F00203A0F82A328F
:1014F800022204F22A212046FFF73EF9BFE790F8BE
:101508002432023B012BB7D8B0F80E32012BB6D1EA
:10151800B0F82A324268002180F8271223F002032B
:101528009268A0F82A3200F5037190472046FFF729
:10153800AFF9A4E7B0F80E32012BA0D1426880F8C9
:101548002732936800F5037198472046FFF7A0F902
:1015580095E7B0F81032002B8ED1B0F81232002B7C
:101568008AD190F82422B0F80E32032A03F07F03C0
:1015780082D0002B14BF0222012280F8263280F884
:101588002422FFF785F97AE7B0F81222012A7FF4BE
:1015980073AF90F82432022B1ED0032B7FF46CAF6C
:1015A80000F22921FFF7E8F869E783681B68984784
:1015B80000283FF464AF0388002B3FF460AFB4F811
:1015C8001222002A3FF45BAF9A42416828BF1A46AC
:1015D8002046FFF7D1F852E7002380F8283200F5BB
:1015E8000A71FFF7C9F84AE7DBB2052B3FD8DFE8F5
:1015F80003F017130F0B070383681B6A9847D7E795
:1016080083685B6A9847D3E78368DB699847CFE7C5
:1016180083689B699847CBE783685B699847C7E706
:1016280083681B699847C3E783689B689847BFE747
:10163800CBB1426880F82932032180F8241213685C
:1016480098472046FFF724F919E790F829229A428B
:1016580009D143685B6898472A78636884F8292227
:101668001B68204698472046FFF712F907E74368AA
:1016780000F503719B68984701E700BFDC61002013
:1016880038B590F82432013B022B0CD84368044645
:101698009B6800F503719847B4F81232054603B900
:1016A80030B1284638BD0025FFF7BAF9284638BDBD
:1016B8002046FFF7EDF8284638BD00BF70B590F812
:1016C8000C3213F0600F04460ED190F80D32B0F8CA
:1016D8001052012BE9B240D0032B0CD013B3204693
:1016E800FFF79EF9002070BD436800F503719B6801
:1016F8009847002070BD90F82432022B3CD0032B71
:10170800EDD1B0F80E321BB94B0601D0FFF74EF9F8
:10171800636804F503719B68204698472046FFF7E5
:10172800B7F8DFE790F82432022B2AD0032BD6D162
:1017380001F07F0100EB41112E064CBF0C3101F581
:1017480086710222CB7AA3F10103B3FA83F35B0912
:1017580021F80C3FFFF710F8C4E790F82432022B69
:101768000AD0032BBBD1B0F80E32002BBAD14D06EC
:10177800D4D0FFF7E1F8CBE74A06B3D0FFF716F964
:10178800B0E711F07F060ED104EB46112B064CBFD3
:101798000C3101F58671002321F80C3F0222204606
:1017A800FEF7EAFF9EE7FFF701F9EDE750B9084BAE
:1017B8005A6860F341025A60054B5A6861F30002A7
:1017C8005A607047024A536843F002035360F3E7D4
:1017D80000580140014BD860704700BF00580140D5
:1017E800014B1861704700BF00580140014B586118
:1017F800704700BF005801400F490B6843F00103D0
:101808000B600B689B07FCD54B680B4A6FF3010311
:101818004B60536813F00C0FC3F38101F9D11368BF
:1018280023F086734FF41F0023F480331360516054
:1018380011639060704700BF00100240030C03F171
:10184800804303F5043300F01F001A68012303FAEC
:1018580000F030EA02030CBF01200020704700BFEF
:10186800074A1368980306D44FF440531168890354
:1018780001D4013BFAD1024B1868C0F340407047CD
:1018880000100240030C03F1804303F504330129DF
:101898001A6800F01F0006D0012101FA00F022EAC0
:1018A80000001860704701FA00F010431860704794
:1018B800042809D8DFE800F0090F151B03000F4BB7
:1018C8005A6A61F300025A6270470C4B1A6861F356
:1018D80000021A607047094B1A6861F310421A60D7
:1018E8007047064B1A6861F318621A607047034B19
:1018F8001A6A61F300021A62704700BF00100240C2
:10190800024B5A6860F307125A6070470010024091
:10191800024B5A6860F30A225A607047001002406E
:10192800024B5A6860F3CD225A607047001002409B
:1019380010B4144B5C68C0B960F310445C60186B59
:1019480040F0007018630F4B586861F39540586079
:10195800C1F3011C59686CF35E715960596862F3F0
:10196800DF7159605DF8044B704744F480345C6063
:10197800012858680CBF6FF3514040F4003058609C
:10198800E1E700BF00100240024B5A6860F3010211
:101998005A60704700100240024B5868C0F381003B
:1019A800704700BF0010024010B4344A536813F067
:1019B8000C0FC3F381012AD0022931D0304B0360C8
:1019C8002E49304C4A68C2F30312A25C2E4CD34015
:1019D80043604A68C2F30222A25C2C4C23FA02F24A
:1019E800C2604A68C2F3C222A25CD34083604C68DA
:1019F8004A68C4F30071C2F3813242EA8102244981
:101A08005DF8044B8A5CB3FBF2F303617047536DD6
:101A18009B05D3D5136B9C01D0D51E4B0360CFE734
:101A280051685368546814F0C04FC1F30042C3F3BF
:101A38008343C4F3417108D10F2B06D002334AB94E
:101A4800154A02FB03F30360BAE7013303EB011302
:101A5800002AF5D0094A516889030AD5526D084908
:101A6800C2F301320232B1FBF2F202FB03F303606C
:101A7800A6E7034A02FB03F30360A1E70010024054
:101A880000127A00E4510008DC510008DC5100081B
:101A9800D4510008006CDC0200093D00012805D083
:101AA800054B5A6D6FF305125A657047024A536D1C
:101AB80043F030035365704700100240012808D1F5
:101AC800074B1A6B42F000721A635A6D42F40072A7
:101AD8005A65034B5A6D60F308225A65704700BF78
:101AE80000100240016840F2FF42024000236FF3F9
:101AF8000001B2F5816F0160036043608360C360D9
:101B08000ED2C3B20A4A0B49083BA2FB03231B09A6
:101B180048689B000F2202FA03F303434B607047A7
:101B2800B2F5916FFBD2C3B2014A0349083BECE717
:101B3800CDCCCCCC0000024000040240D0F8A43048
:101B4800DB0105D4D0F8A43043F08073C0F8A4308A
:101B5800012919D0022910D0032923D004291AD029
:101B6800052926D006292BD0072905D1D0F8A4307D
:101B780062F31743C0F8A4307047D0F8A03062F37E
:101B88000F23C0F8A0307047D0F8A03062F30703E5
:101B9800C0F8A0307047D0F8A03062F31F63C0F8D7
:101BA800A0307047D0F8A03062F31743C0F8A030D7
:101BB8007047D0F8A43062F30703C0F8A430704728
:101BC800D0F8A43062F30F23C0F8A430704700BFE8
:101BD8000023C0E90033C0E902330382704700BF25
:101BE80003684BF6EF721340036002680B891343D6
:101BF800036003684A7C62F30D3303600368CA7BA1
:101C080062F38B23036003688A7B62F30923036012
:101C180003684A7B62F3C713036003680A7B62F3B5
:101C2800861303600A7C036862F345130360D1E9F5
:101C3800002310B44C89446082605DF8044BC36093
:101C4800704700BF10B58B790A68032B1FFA82FE14
:101C580000F0C180002B00F0B48091F804C0CC796A
:101C680003F008030CF004010B4304F003010B43D9
:101C780091B2D2B2002A4ED0CC0706D5026822F023
:101C88000F02026002681A4302608A0707D50268D9
:101C980022F0F0020260026842EA031202604C0776
:101CA80007D5026822F470620260026842EA0322E1
:101CB80002600A0707D5026822F4704202600268CF
:101CC80042EA03320260CC0607D5026822F4702289
:101CD8000260026842EA034202608A0607D5026887
:101CE80022F470020260026842EA035202604C0663
:101CF80007D5026822F070620260026842EA036255
:101D080002600A0607D5026822F070420260026883
:101D180042EA03720260BEF1FF0F51D91EF4807FC0
:101D28004FEA1E2206D0416821F00F014160416848
:101D380019434160940707D5416821F0F0014160DB
:101D4800416841EA03114160510707D5416821F410
:101D580070614160416841EA03214160140707D579
:101D6800416821F470414160416841EA03314160B2
:101D7800D10607D5416821F470214160416841EAE4
:101D880003414160940607D5416821F47001416020
:101D9800416841EA03514160510607D5416821F085
:101DA80070614160416841EA03614160D20907D02E
:101DB800426822F070424260426842EA037343601C
:101DC80010BD4979182901F00F0307D0282991B2CD
:101DD80008BF41614DE7714600234AE791B20161AE
:101DE80047E700BF024B4FF6FF72C0E90023704778
:101DF800000400011F4BDB68C3F3022300B5C3F1E5
:101E0800070EBEF1040F03F1040C28BF4FF0040EB7
:101E1800BCF1060F21D9033B4FF0FF3C0CFA03FC41
:101E280022EA0C024FF0FF3C0CFA0EFC21EA0C01EE
:101E38009940002841EA020112DB0F4A09011318F0
:101E4800C9B283F800130123410900F01F0003FA07
:101E580000F042F821005DF804FB00221346E1E798
:101E6800064B00F00F0009010344C9B219765DF86A
:101E780004FB00BF00ED00E000E100E0FCEC00E046
:101E88004FF0E022042813690CBF43F0040323F049
:101E980004031361704700BF00224FF08073026093
:101EA80043607047C3696FF3CB23C3610B78002B82
:101EB8003ED1026863F3CF320260026863F38E3268
:101EC8000260026863F38A220260036891F807C01F
:101ED8006CF3492303604A780368012A3BD06FF307
:101EE80008230360036862F3820303608B78426807
:101EF800072B8CBF42F480726FF30822426002689D
:101F080063F3C50202600368CA7862F3C71303600B
:101F180003680A7962F3CB23036003684A7962F3A2
:101F2800410303608A79036862F300030360704722
:101F3800012B17D0022B22D0032BC6D1036843F400
:101F480000430360036843F48043036003686FF34E
:101F58008A230360B9E7BCF1010FC0D143F4807351
:101F68000360BFE703686FF3CF33036003686FF361
:101F78008E330360036843F480630360A5E7036856
:101F880043F40043036003686FF38E330360036810
:101F98006FF38A23036098E7036861F30003036023
:101FA800704700BF0023036003714371837170475A
:101FB800C1628262436943F001034361704700BF15
:101FC800036861F306130360704700BFF0B55478E7
:101FD800436801F1080501F109070126AC4006FA3A
:101FE80005F5BE401FFA84FC23EA0606947846608D
:101FF8004368BC40A4B21C434460436823EA050517
:10200800456044684CEA04041FFA81FE44600629CE
:102018000AD8DFE801F0040945093F0939001478B6
:10202800836964F3061383611679036A4FEA4E0ED7
:1020380001254FEA410C0EF103018E4005FA01F12A
:1020480023EA0101B3B21943D3780EF10104A34086
:1020580005FA04F421EA0401947952799BB202FA50
:102068000CF20CF1020C194304FA0CF405FA0CF307
:1020780021EA0303A1B205FA0EFE0B4323EA0E037D
:1020880092B213430362F0BD1478C36964F30E334C
:10209800C361C9E71478C36964F30613C361C3E76E
:1020A8001478836964F30E338361BDE7062906D883
:1020B800DFE801F00A050805060504000264704718
:1020C800C26370478263704742637047436C61F331
:1020D800CF334364704700BF026C002380216FF345
:1020E8000002026443640365C164036C43F41E4345
:1020F80003647047036C6FF341030364036E6FF36B
:1021080041030366704700BF2DE9F041087883005A
:1021180003F1804303F5B84348F6807C1A6802EA65
:102128000C0291F801C042EA0C021A60CA78002A2F
:102138004BD18C7A4FF4007C1A6848F68F1E02EA5D
:102148000E0242EA0C021A608A78012A00F0D18055
:10215800002C52D1B34CB44E226DCF8802F1040C3E
:10216800082212FB00CC10FB02F5326842F81C7002
:1021780054F82020570408D5186840F60F7210400C
:1021880040F4404040F080001860A64A0989126D6A
:10219800346806323E292A4400F2D2804808CD0726
:1021A80058BF0130800280B244F812001A6822F445
:1021B800804222F0700292B282F4405242F400420D
:1021C80042F080021A60BDE8F081012A04D0022A98
:1021D80000F02381032A03D08C7A4FF0000CABE780
:1021E80001228A721A6848F68F14224042F48062EB
:1021F8001A608A78012A00F0BA801A68DFF8248207
:10220800894D8F882E68B1F808C040F60F642240C7
:1022180042F4014242F080021A60D8F850200824A3
:1022280014FB0022BCF13E0F46F81270D8F850207B
:10223800CF88296802F1040214FB002210FB04FE77
:1022480041F81270D8F8502002F1020214FB002263
:102258002C6800F282801CF0010F4FEA5C0100D16B
:102268000131890289B244F81210D8F850402A681E
:102278000634A64402EB4E0E6A4ACEF8001052F815
:102288002020510608D51A6840F60F710A4042F41A
:10229800004242F0C0021A60624A52F820205204FA
:1022A80008D51A6840F60F710A4042F4404242F0DD
:1022B80080021A601A6840F60F710A4042F4004220
:1022C80042F0C0021A601A6822F4804222F07002BA
:1022D80092B248F2800182F440520A431A601A68A6
:1022E80022F4E04222F04002114389B21960BDE8AD
:1022F800F081002C3BD14B4C8D88226D4A4902EB72
:10230800C002096841F8125054F82020500608D538
:102318001A6840F60F710A4042F4004242F0C002C7
:102328001A601A6822F4E04222F0400292B282F067
:10233800200242F4004242F080021A60BDE8F081B7
:102348004809CE0604BF00F1FF3188B2374941EA97
:10235800802189B244F8121028E71CF01F0F4FEAB9
:102368005C1100D10139314F47EA81217AE71A68B7
:102378002D4E8F8840F60F64224042F40142294CCA
:1023880042F080021A60256D32684FF0080C1CFB81
:10239800005542F81570CF88216D356804311CFB53
:1023A800001245F8127054F82020510608D51A6812
:1023B80040F60F710A4042F4004242F0C0021A602F
:1023C800184A52F82020520408D51A6840F60F71AE
:1023D8000A4042F4404242F080021A601A6840F60D
:1023E8000F710A4042F4404242F080021A601A68B3
:1023F80022F4804248F2800122F070020A4392B22D
:102408001A601A6822F4E04222F0400292B282F086
:1024180020020A431A60BDE8F0818C7A4FF4C06C40
:102428008AE600BF005C0040040000200080FFFF37
:102438008B7A13BB8B780A784449012B51F82230E8
:1024480067D058040AD551F8223040F60F7003407F
:1024580043F4404343F0800341F822303B4951F8AC
:10246800223023F4804323F0700343F4004343F005
:1024780080039BB241F8223070470B78334850F8FC
:10248800232052060BD550F8232040F60F7C02EA91
:102498000C0242F4004242F0C00240F823202B48CC
:1024A80050F8232052040BD550F8232040F60F7C17
:1024B80002EA0C0242F4404242F0800240F8232033
:1024C8009B0003F180438A7803F5B843012A1A6810
:1024D80040F60F7002EA00020BBF42F4004242F4D9
:1024E800404242F0C00242F080021A601A6822F4A8
:1024F800E04248F2800122F040020A4392B21A6098
:102508001A6822F4804222F07002114389B21960DD
:1025180070475B060AD551F8223040F60F70034029
:1025280043F4004343F0C00341F82230074951F80F
:10253800223023F4E04323F0400343F4004343F004
:1025480080039BB241F82230704700BF005C004016
:10255800084B01321B685FEA620C03EB410107D0AC
:102568000023013330F8022B21F8042B9C45F8D1C5
:10257800704700BF04000020084B01321B685FEA67
:10258800620C03EB410107D00023013331F8042B1F
:1025980020F8022B9C45F8D1704700BF04000020AA
:1025A800C36C61F30603C364C36C43F08003C36464
:1025B800704700BF036C43F008030364036C43F0E7
:1025C80004030364704700BF036C6FF3C303036421
:1025D800036C6FF382030364704700BF014B402212
:1025E8001A80704700000020C9434164704700BF4B
:1025F800002103E00B4B5B58435004310A480B4B56
:1026080042189A42F6D30A4A02E0002342F8043BF1
:10261800084B9A42F9D300F011F802F03DFDFDF79E
:102628003FFE7047AC5E000800000020C401002097
:10263800C401002028920020FEE70000164A17492E
:10264800D2F8883010B443F47003C2F888300B68AD
:1026580043F001030B600B689B07FCD54B680F4ADE
:102668006FF301034B60536813F00C0FC3F3810140
:10267800F9D11368084823F0867323F48033136074
:102688004FF41F044FF000635160116394605DF8CC
:10269800044B8360704700BF00ED00E0001002406B
:1026A80008B5FFF779F960B1022816D0214B224A04
:1026B800224852682249C2F30312825CD3400B605D
:1026C80008BD1D4B5A6D9005F0D5196B194A1D4B65
:1026D80011F0007F08BF1346E9E717494A684B68BD
:1026E800496811F0C04FC2F30042C3F38343C1F3FA
:1026F800417007D10F2B05D0023342B9124A02FBB1
:1027080003F3D4E7013303EB0013002AF6D00A4A97
:102718005168890309D5526D0649C2F30132023264
:10272800B1FBF2F202FB03F3C1E7024A02FB03F337
:10273800BDE700BF00127A0000100240F451000803
:1027480008000020006CDC0200093D0000207047F2
:1027580043685B6A0122002083F85220704700BF5B
:102768000020704743682DE9F0475F6ADFF87890EA
:102778000646FEF7C1FAB9F800501FFA80F8444639
:1027880001232A1987F8533042F6E0639A4288BF3A
:102798005C1B124B12481A88A7F850802A4407F18C
:1027A800040A88BF1FFA84F810445146224602F0F2
:1027B80097FC05EB08033F2CA9F8003002D8094B19
:1027C80001221A700024304687F8534040235246AD
:1027D8000121FEF767FA2046BDE8F087E0010020F6
:1027E800E4010020AC5F0020A45F002010B5822126
:1027F8000446FEF7C1FA20468121FEF7BDFA2046BD
:102808000121FEF7B9FA002010BD00BF38B54368B2
:1028180004464FF4A07282215D6AFEF775FA2046DD
:10282800C0228121FEF770FA20464FF48072012100
:10283800FEF76AFA2046082302228221FEF77AFA76
:102848002046402301228121FEF774FA0122114615
:1028580020464023FEF76EFA20462A1D4023012118
:10286800FEF720FA084B0020286019689A799B889F
:1028780085F85A20012485F85240A5F8583085F883
:102888005300696538BD00BF340000200020704740
:1028980010B542680B78546A13F06002844616D06B
:1028A800202A0FD1CA885AB113F0800F4B7833D140
:1028B80084F84C30A4F84E2004F14401FDF7BAFF27
:1028C800002010BD6046FEF7ABF8002010BD4B7825
:1028D800013B0A2BF6D801A252F823F0C9280008B8
:1028E800CD280008C9280008CD280008CD280008F0
:1028F800CD280008CD280008CD280008CD280008DC
:1029080017290008112900084B882360D8E70122FD
:102918002146FDF731FFD3E7202B04F144001CD0FA
:10292800212B04D001466046FDF726FFC8E7636DFA
:10293800B4F85820A4F8482094F85A2084F84A207B
:102948001A0A84F8443084F845201A0C1B0E84F8BF
:10295800462084F84730CA88E4E7636C6365B4F8B6
:102968004830A4F8583094F84A3084F85A30D9E7F7
:1029780038B543685D6A00210446FEF7BDF995F84D
:102988004C30202B01D0002038BD63686A6C5B6A2C
:102998005A6595F8482083F8582095F8492083F817
:1029A800592095F84A2083F85A20002038BD00BFE6
:1029B80010B543685C6A94F852301BB903F0FF0CF9
:1029C800604610BD002384F8523013460A46812120
:1029D800FEF750F84FF0010C604610BD00487047F4
:1029E8006C000020002070470048704764000020F9
:1029F80000487047EC00002030B50021104D114C04
:102A0800412002238E465A1CE05492B215F8010F59
:102A180004F802E002331FFA81FC9BB2013100285E
:102A2800F1D10CF1020C08484FEA4C0C1FFA8CFC4F
:102A3800032384F800C06370A0F800C0446030BD70
:102A4800045200083C6200203C63002030B500219D
:102A5800104D114C412002238E465A1CE05492B26C
:102A680015F8010F04F802E002331FFA81FC9BB24B
:102A780001310028F1D10CF1020C08484FEA4C0C46
:102A88001FFA8CFC032384F800C06370A0F800C010
:102A9800446030BD0C5200083C6200203C630020BA
:102AA80030B50021104D114C562002238E465A1C79
:102AB800E05492B215F8010F04F802E002331FFA4D
:102AC80081FC9BB201310028F1D10CF1020C0848BD
:102AD8004FEA4C0C1FFA8CFC032384F800C0637087
:102AE800A0F800C0446030BD245200083C620020B9
:102AF8003C63002030B50021104D114C56200223B4
:102B08008E465A1CE05492B215F8010F04F802E000
:102B180002331FFA81FC9BB201310028F1D10CF17C
:102B2800020C08484FEA4C0C1FFA8CFC032384F86B
:102B380000C06370A0F800C0446030BD4052000877
:102B48003C6200203C630020434AD2F8E817D2F8E0
:102B5800F037CB1801D141487047D2F8EC17404AFA
:102B6800180FB3F1204F2CBF373030309070C3F3BB
:102B7800036009288CBF373030301071C3F303501D
:102B880009288CBF373030309071C3F303400928CF
:102B98008CBF373030301072C3F3033009288CBF34
:102BA800373030309072C3F3032009288CBF373098
:102BB80030301073C3F30310092803F00F038CBFE0
:102BC80037303030092B94BF303337331374002338
:102BD800B1F1204F53744FEA11732CBF37333033A0
:102BE8009374C1F30363092B8CBF373330331375E8
:102BF800C1F30353092B4FF0000C8CBF373330332C
:102C080082F803C04FF0000C82F805C090734FF0B3
:102C1800000C00209375C1F30343092B82F807C009
:102C2800D0734FF0000C4FF0000094BF30333733AF
:102C380082F809C0D0744FF0000C002082F80BC055
:102C480050754FF0000C002013760023D07582F8E1
:102C58000DC002485376704700F0FF1FF4000020B3
:102C680078000020002070474FF0E023421C1B69C9
:102C780018BF01304FF0E0221369DB03FCD501389F
:102C8800FAD1704730B5D0F89C50D488B2F804C057
:102C9800108853886A890134A4EB0C046244B5F89F
:102CA80008C085B0A4B2013384441B1A6868CDE912
:102CB800004101249BB292B21FFA8CF1029402F0F7
:102CC8004EF9002005B030BD70B5D0F89C6033686F
:102CD8005D68AA4228BF2A46144629B108461968E1
:102CE80002F0FEF933685D681A682D1B2244C3E9B7
:102CF8000025204670BD00BF30B5B1B0ADF81E202C
:102D08009DF8D820BDF8D0500690012AADF81C10C7
:102D180002D0022031B030BD359A1A4912680392A8
:102D28001C46359A05AB00935268049203AA059293
:102D380042F6E063144A08A800F02AF80028E9D10E
:102D4800BDF83C30BDF83E20A34201DCAA4209DDB3
:102D5800B4EB530F02DBB5EB520F10DAB4EB930F61
:102D680007DA03200246094908A800F0B5FC31B08B
:102D780030BDB5EB920FB4BF03200220F2E701206B
:102D8800F0E700BFD12C0008446300208D2C000818
:102D98002DE9F04F93B080460D4692461C98A0222C
:102DA8004FF0000B4146124303D001F801BB013A32
:102DB800FBD1B54AC8F89C001278C8F89850B3F50A
:102DC800806FC8E924A388F88820C0F0BF80A3F5E5
:102DD8008063C8F894300AF58063C8F89030C8F862
:102DE80008A0BAF1000F00F02D815C464FF6D876A6
:102DF80008E09AF8003043EA0424A4B2B4420DD0A3
:102E0800D8F89850012251464046A84701280BF1AE
:102E1800010BEED0022013B0BDE8F08FDFF86C9202
:102E2800CDF80CB0D346D8F898300422594640461D
:102E380098470428EED1BBF80220BBF8003052BAFC
:102E480092B25BBA022A9BB240F22582190AFF2984
:102E580040F021820398DBB2911C0844C03B0390E8
:102E6800A2F1020A1D2B00F2F180DFE813F01E0028
:102E78006B006B006B0075006B006B006B00EF0064
:102E88006B006B006B00EF006B006B006B00EF00DA
:102E9800EF00EF00EF00EF00EF00EF00EF00EF00B2
:102EA8006B0059011101EF00F900BAF5806F00F2CB
:102EB800B583D8F898305246594640469847504509
:102EC800A8D1BBF803305BBAA8F81C30BBF80130B6
:102ED8005BBAA8F81E309BF8052088F8132002F08A
:102EE800FD03012B2ED19BF80730112B03D0A3F142
:102EF8002101012926D8190903F00F0388F80E10BB
:102F080088F80F309BF8083088F81030032B19D850
:102F1800012A88D09BF80A30112B13D19BF80B306B
:102F280088F81130032B0DD8032A7FF47CAF9BF867
:102F38000D30112B06D19BF80E3088F81230032B78
:102F48007FF671AF082013B0BDE8F08F0320C8F8F2
:102F580008B013B0BDE8F08FBAF5806F00F25E8359
:102F6800D8F89830524659464046984750457FF41D
:102F780051AFCDF820B0CDF82CA0CDF82480CDF8F5
:102F880040B00B9B102B40F28681089B197811F0FA
:102F9800EE0240F08081099BD3F894300F2B51D971
:102FA800099D103BC5F89430D5F8903003F1100016
:102FB800C5F89000002B45D00809022401F00F0144
:102FC8000E9114FB010105EB8106089C33626178C0
:102FD80019700A90A07858700844E17899700844EC
:102FE8002179D9700844617919710844A179597116
:102FF8000844E17999710844217AD9710844617AC1
:1030080019720844A17A59720844E17A99720844FD
:10301800217BD9720844617B19730844A17B0F9600
:1030280008445973E17B99730144207CD873411893
:103038000C914900D5F89400033121F00301814235
:1030480040F22E81032013B0BDE8F08FD8F89830F5
:10305800524600214046984750453FF4E4AED9E631
:10306800BAF5806F00F2DA82D8F89830524659469D
:103078004046984750457FF4CDAEBBF800305BBA68
:10308800A8F81A30CFE600BFFC000020585200080C
:10309800BAF5806F00F2C282D8F898305246594685
:1030A8004046984750457FF4B5AE0BF10207BAF198
:1030B800400F40F2F08017F8023C13F0F00F38464A
:1030C80040F0E980D8F89420FF2ABBD9D8F890506E
:1030D800A2F58072C8F8942005F58072C8F890208F
:1030E800002DAFD003F0030314336C4A48F8235083
:1030F80017F8013C5B032B6002F13F0612F8011F31
:1031080010F8013B39F81140B24204FB03F345F8CB
:103118002130F3D1BAF1410A07F14107C7D182E65C
:103128005246B2F5806FDA46DDF80CB000F27682CE
:10313800D8F898305146404614469847A0427FF444
:1031480069AEB8F81C30002B00F0A580B8F81E3026
:10315800002B00F0A08098F813209AF800309342D2
:103168007FF4F0AE002B3FD09AF8022012B1112A5A
:103178007FF4E8AED8F82020002A00F08C80D8F838
:103188002420002A00F0878098F81020143258F87C
:103198002220002A7FD0012B26D09AF8042012B1D1
:1031A800112A7FF4CFAED8F82820002A73D0D8F897
:1031B8002C20002A6FD098F81120143258F82220B9
:1031C800002A68D0022B0FD09AF8062012B1112AD3
:1031D8007FF4B8AE98F81220143258F82220002A4A
:1031E80059D0032B7FF4AEAE98F80F3098F80E2024
:1031F80013FB02F3002B4ED0DB0103F14000B0F5C6
:10320800807FD8F8942038BF4FF48070B2EB400F1D
:103218004FEA4001C0F05782C8F88400D8F89000FF
:10322800C8F87C00521A00240144C8F89420C8F851
:103238009010C8F8804000283FF404AF03F580736D
:103248009A42C0F03B82D21AC8F894200B44CBF3C0
:103258000902C8E923134AB19244D8F89830C2F554
:103268008062514640469847C8F80000C8F804A054
:103278000020D0E50A461132204610440D9A0890E5
:10328800511E04E0834201F8012F00F0248113F855
:10329800012B0B2AF6D90620BDE500BFD85200083D
:1032A800D5F89070401A79181190C5F894000D91CE
:1032B800C5F89010002F3FF4C5AE591E0F33376381
:1032C8000791069301919346BE46019B13F8018F1F
:1032D800019308F1FF340494B8F1000F00F0A480C2
:1032E8000EEB4B014B085B42092C03F003034FEA3A
:1032F8004B0040F28D81002B00F05A812EF80020FF
:10330800501C059086B2012BA8F102000BF10107B1
:10331800029011D04E80A8F10300961C032BB6B280
:103328000BF10207029007D18E80D61CA8F1040287
:10333800B6B20BF10307029200221146B01C60F3EB
:103348000F01A8EB030A701C66F30F025B440EEB37
:10335800430360F31F424FEA9A0CF01C60F31F41CD
:1033680003EBCC0C151D0020044665F30F00C2F3D7
:103378000F451A602A1D62F31F400246081D60F3BC
:103388000F04C1F30F405960011D083361F31F4456
:1033980063452146E6D12AF00302029B1644924572
:1033A800B6B21744A3EB020138D0731C2EF817608D
:1033B8009AB27F00002931D00EEB070301295A8009
:1033C80006F1020292B229D09A80022906F103027C
:1033D80092B223D0DA80032906F1040292B21DD0FA
:1033E8001A81042906F1050292B217D05A810529DB
:1033F80006F1060292B211D09A81062906F1070257
:1034080092B20BD0DA81072906F1080292B205D0F0
:103418000936B6B208291A8218BF5E82DDE904238C
:1034280012FA83F6C344B2B2019B069956008B4246
:10343800B2B27FF44AAF0B9B0C99113B8B42774693
:103448000593FFF428AF119ACB1C23F003039A428B
:10345800FFF4F8AD0D98099CD21A0344C4E924324C
:1034680000283FF4EFAD0F9B089C186404F111038A
:10347800002900F021810A9A002A3FF4FBAE04F1EA
:103488001202821A022A40F207814A1E072A40F2D3
:1034980003818C0800EB84040246194651F8040B9A
:1034A80042F8040BA242F9D10C9D25F00302AA426E
:1034B80003EB02010CD00D9E985CB054501C854261
:1034C80006D902324C783454954201D98978B154DE
:1034D8000C9A13440893099BD3F894200A9B002B59
:1034E80000F0B380B2F5006FFFF4ACAD099BA2F514
:1034F8000062D3F890B0C3F894201A460BF5006325
:10350800C2F89030BBF1000F3FF49CAD0E9B02EB6C
:1035180083034FF0FF31C3F86CB04FF400725B4681
:10352800124303D043F8041B013AFBD14FF0000CBF
:1035380001230D9E01970020CDF810B09E46079BF1
:1035480013F8014F079364B30123CEF10A0503FA78
:1035580005F70A9B4FEA0E1A4FEA0E2B7BBB019B1D
:1035680000F1004B0BF1FF3B00F1FF3803EB4B0B75
:10357800B0443BF8023F18F8012FAB40C3F30903EE
:10358800634442EA0A023946094303D003F8012B8F
:103598000139FBD16FEA080333440344E342E8D11D
:1035A8002044BEF10A0F0EF101033AD09E46C6E749
:1035B8001646049A0292721C5F460592BCE6019B6D
:1035C800CDF808C000F1004A0AF1FF3A00F1FF38CF
:1035D800DDF810C003EB4A0AB0443AF8023F18F885
:1035E800012FAB40C3F309030CEB430342EA0B0280
:1035F8003946094303D023F8022B0139FBD16FEA7E
:10360800080333440344E342E7D1DDF808C0C7E7C1
:10361800531C214616465F460593C6E60420FFF76D
:10362800FABB0E9A099B03EB42030A9A13440C9ABD
:1036380083F86500059B9B1A0B937FF4A2ACDDF819
:103648002480DDF840B0FFF7EEBBB2F5806FFFF4E1
:10365800F9AC099BA2F58062D3F890C0C3F8942016
:103668001A460CF58063C2F89030BCF1000F3FF4A5
:10367800E9AC0E9B02EB83034FF0FF31C3F874C033
:103688004FF480726346124303D043F8041B013A97
:10369800FBD1DDF828B04BE70C9A02F11100089A2B
:1036A800024410460D9A511E1A4612F8014B01F8B1
:1036B800014F8242F9D10BE708930FE7C8F88C4015
:1036C8000320FFF7A8BB0023C8E92030C8F87C30E6
:1036D8000320FFF7A0BB00BF2DE9F04F9BB0032AE2
:1036E8000190179100F28A87817BC37B4273CA00DD
:1036F800DB001292C28B1593002343610383002AD7
:1037080000F01381818B139311930E93002900F01D
:10371800058100230B93019B5A8B32B111994B1CE5
:103728008A429BB200F0AD841193019CD4E91F2317
:10373800A07BE17BD31810FB01F10793C1F10103D2
:10374800D4F88C000A934B1E0D910C900F930F9B8D
:103758000A9A0D991344994200F2E980002A00F070
:103768006A84019BDB7C032B00F0808420234FF0CC
:1037780080110C9A1B4303D042F8041B013BFBD178
:103788000A9B0C9A01338032032B0A930C92DED1E8
:10379800019A0B98937BD47B918BD2F8802000EB15
:1037A800C3004FEAC30B88424FEAC4030A9300F2EE
:1037B8003E845846019B0E9D0A9CDB8B2C449C4200
:1037C800019C98BF0A9B94F80D8088BF5B1B30FA58
:1037D80008F00D9000F0928033FA08F60F9600F08A
:1037E8008D800B9B23FA08F39BB2ADF86030013B48
:1037F8000344ADF862300E9B23FA08F39BB2ADF890
:103808006430013B3344ADF86630E36F2146B8F1CC
:10381800030F03EB02040C9400F0248691F888E06F
:10382800BEF1010F40F27084019B0A9D2646D3F831
:103838008C40002304EB0312102D02D1082B28BF63
:1038480080320021BBF1100F02D1082908BF703265
:1038580032F9020BBEF1020F04D180F3080006F81A
:10386800010B07E0A0F3C50040EA801040EAC02041
:1038780026F8020B01315945E4D30133AB42D9D3C1
:10388800B8F1000F40F085860D9B2BFA08F5AB4286
:1038980027D2019B93F8882002F0FD03012B00F04A
:1038A80015842AB90D9B03EB43030D9305EB4505DE
:1038B8000F9B012B15D00C9EDDF834E0B446012493
:1038C8007644AC44334662467146094305D012F843
:1038D800010B03F8010B0139F9D10F9B0134A34205
:1038E800EED1019D179C0C9918AA2846A04710F004
:1038F800FF0440F04B86D5F88020A98B002A40F3BE
:103908009D830B9A1298024401980B9200238A42D5
:10391800C0F88030FFF4FFAE019BDA8B0E9B159840
:1039280003449A420E933FF6F1AE002022E10023B1
:103938000593099301990B7B0C6E03F01F054FF05B
:10394800FF32AA4013F01006D1E9000A24EA020463
:1039580040F0C382884698F864301BBB58B9D8F841
:1039680008A0D8F898304FF48062514640469847EE
:10397800002800F0A5821AF8013B0138002E00F05B
:103988003181002B00F0A28288F86430FF230835CB
:103998000F2D43EA042400F2A08298F86430002630
:1039A800002BDBD005F1080324020F2B44F0FF04A1
:1039B80004D8240244F0FF0405F11003019D059A80
:1039C8002C66C5E9000A05EB8202A3F10A010392FD
:1039D80024FA01F1526F565CFF2E00F08282099999
:1039E800A3EB16132A46DBB202EB41092B7306F050
:1039F8000F06B9F914B0002E40F0B782019D099B5B
:103A0800EB1800211B7C143355F8233008931A4611
:103A1800079B126802FB0BF2121243F8042B3F2299
:103A2800124303D043F8041B013AFBD14FF0010BBA
:103A3800514695F80C802C6E08F01F064FF0FF33A6
:103A4800B34018F0100824EA030440F0488295F8BF
:103A58006430002B46D1002851D1D5F80890D5F80C
:103A680098304FF48062494628469847002800F06D
:103A780027824946013811F8013BB8F1000F46D0BA
:103A8800002B4DD085F86430FF2343EA042406F167
:103A980008030F2B40D9C5E90001039A2C66A3F14E
:103AA8000A06D26E24FA06F632F816604FF6FF724E
:103AB800964237D0A3EB1623F6B22B73002E73D0A1
:103AC8000BEB161ABAF13F0F53D816F00F0640F059
:103AD8008E80BAF13F0F0AF1010B00F0F280D5E9B0
:103AE8000001A6E706F1080324020F2B44F0FF04A7
:103AF800D1D8240244F0FF0406F11003CBE789462D
:103B08004946013811F8013BB8F1000FB8D1FF2B35
:103B1800BBD14FF001089AE71E464FF0000896E720
:103B2800FF23B2E7059A069305EBC20E05EB4202A6
:103B3800DEF824C092F86620DEF83460DEF844E04F
:103B480006EB420696440CF11002029203EB0C02BB
:103B58000CF10A08CCF1010A04928C46724608EB73
:103B68000A0318F801EBBEF1000F06D1029B984535
:103B7800F5D106201BB0BDE8F08F0499A1EB080928
:103B8800964424FA09F9614603E00132724500F0CF
:103B98009B8136F802CBE145F7D11E46069B9B1B5D
:103BA8002B731678002E8BD1019B93F88830023B3B
:103BB800012B40F26182BBF1010F40F08C80079B22
:103BC8000C991B68002BB8BFFF331B1280331AB245
:103BD80042EA034220231B4303D041F8042B013B54
:103BE800FBD1CDE5FF2B7FF4D2AE0126B3E695F8E5
:103BF8000C804FF0FF3308F01F0803FA08F346451E
:103C080024EA030424D826E2002840F04581D5F8A8
:103C180008B0D5F898304FF480625946284698473E
:103C2800002800F04D815946013811F8013BB9F1DF
:103C3800000F00F03A81002B00F0408185F86430D5
:103C4800FF2308F10808464543EA042440F212829B
:103C58004FF0000995F86430002BD5D008F108031F
:103C680024029E4244F0FF0404D9240244F0FF04D5
:103C780008F110039B1B2B7303F01F032C66DC4019
:103C8800002CC5E900012146C0F27B84013E0123D6
:103C9800B340234203D15B00C3F101031919A74BB9
:103CA80013F80A20089B53F8223001FB03F3079905
:103CB8001B12BAF13F0F41F822300AF1010B7FF4D1
:103CC8000EAF019B93F88830023B012B03D8099B68
:103CD800002B7FF455AD019B5B7B032B3FF46FAF4B
:103CE80007990C984FF0080C51F8042BCB6BCC6F4C
:103CF800D1F8BC504FF4B55E5E1B0EFB06F6ED180E
:103D0800C5EB2636171BF31902EB0408BC1B08EB9E
:103D18000502A8EB0505D1F8DC60CF69D1F89C80D5
:103D2800D1F85C9007EB060A09EB080E0EEB0A0BBC
:103D3800AAEB0E0A02EB0B0E41F804ECA2EB0B0205
:103D4800C1F8DC204FF4B55202FB0AFEA7EB060AC5
:103D5800A8EB09090AEB090641F6905202FB06F6A0
:103D6800361342F6CF1202FB09F2A6EB2238A8EB73
:103D78000B08C8EB2E3741F2511202FB0AF2A6EBF0
:103D88002236F61B03EB0802CA61A3EB0802C1F84E
:103D9800BC20E219CA63E21BC1F89C20AA19CA65B3
:103DA800AA1BCA67BCF1010C9ED14FF0080C203940
:103DB80051F8202B51F8183C51F8104C51F8085C78
:103DC80002F500424FF4B55E5E1B0EFB06F6ED18D9
:103DD800C5EB2636171BF31902EB0408BC1B08EBCE
:103DE8000502A8EB050551F8046C51F81C7C51F844
:103DF8000C8C51F8149C07EB060A09EB080E0EEB25
:103E08000A0BAAEB0E0A02EB0B0E4FEA2E2E20F835
:103E180010EBA2EB0B02121220F8022C4FF4B55251
:103E280002FB0AFEA7EB060AA8EB09090AEB09063A
:103E380041F6905202FB06F6361342F6CF1202FB09
:103E480009F2A6EB2238A8EB0B08C8EB2E3741F293
:103E5800511202FB0AF2A6EB2236F61B03EB08020C
:103E6800121220F80E2CA3EB0802121220F8042CD0
:103E7800E219121220F80C2CE21B121220F8062C60
:103E8800AA19121220F80A2CAA1B121220F8082CC0
:103E9800BCF1010C8CD173E48B465946013811F8FA
:103EA800013BB9F1000F7FF4C6AEFF2B7FF4C9AE1A
:103EB800464540F2DF804FF00109CBE6FF23C0E61C
:103EC80002201BB0BDE8F08F8C464FE60835FF2373
:103ED8000F2D43EA04247FF660AD2B466EE533468A
:103EE800D9E52946059D01EBC50201EB4501156B96
:103EF80091F86560116A126C01F10A0EC1F10109AD
:103F080001F1100B591805EB4605324402910EEBEE
:103F180009011EF8016B46B9DE453FF42AAE0EEBE7
:103F280009011EF8016B002EF6D006EB020C029E6A
:103F3800A6EB0E0824FA08F8664604E0D8520008F2
:103F48000132B242E8D035F802CBE045F8D15B1A2D
:103F58000199DBB20B7316780A46099902EB4109FD
:103F6800B9F914B0002E3FF449AD4FF0FF329A4032
:103F78009E421D4624EA020440F248834FF000089E
:103F88005146CA46B14626464446DDF8048098F8AC
:103F98006430FBB958B9D8F80810D8F898300291AD
:103FA8004FF48062404698470299002888D011F85B
:103FB800013B013894B3C3B388F86430FF23083554
:103FC800A94543EA062640F21C8398F86430002489
:103FD800002BDFD034464E46D1468A4608352402A7
:103FE800AE4244F0FF04F9D8019BAD1B1D7305F0E8
:103FF8001F051C66EC40002CC3E9000A2246C0F2EB
:10400800C082013E0123B340234203D15B00C3F1C8
:1040180001031A199344A9F814B0EFE4FF2BCED189
:10402800A94540F2EE820124B1E7FF23C7E70B9BC5
:10403800C81AFFF7BFBB059209927BE40B9A129C42
:1040480001982244D0F884300B928A42C0F880301C
:10405800FFF461AB60E4A8EB060885F80C8008F073
:104068001F082C6624FA08F421460FE6012309925A
:1040780005935FE44346FDE5099B002B7FF480AB85
:1040880099E5019A92F86440002C00F08F82002391
:1040980044F47F4482F8643024F027039BB24FF63F
:1040A800D07293427FF465AD139A84EA020313F049
:1040B80007037FF45EAD013292B21392019A137333
:1040C8005361138301231193FFF72FBB0D9A4FEA16
:1040D800420E0F9A012A4FEA45053FF402AC0C9EA6
:1040E800B4467644AC440D9C32466146244305D020
:1040F80031F8020B22F8020B013CF9D10F9A013377
:104108009A42EED1FFF7EDBB0A9B002B59D04FEA3C
:104118000B13039300230293019BD3F88C600A9B33
:10412800102B00F08E81039BF318029A06EB0216FF
:10413800BBF1000F39D00025B3F900C0B3F980E016
:10414800BBF1100FACF1800CAEF1800E00F0518184
:1041580031460233019AB1F9008092F8882002367C
:10416800002A40F0E9802D2000FB0EF008EB6010DB
:1041780080F3080A172000FB0EF10B2000FB0C103F
:10418800A8EB601080F30809712000FB0CF008EB25
:10419800A01080F308020135AB4584F800A084F82C
:1041A8000190A27004F10304C6D1039A029B103255
:1041B80003920A9A01339A420293ADD1019B93F874
:1041C8000D80B8F1000F3FF45FAB019B012093F81D
:1041D80088E000FA08F04FEA48030793ABEB000ABF
:1041E800BEF1000F40F001820AEB4A0A03230A9A43
:1041F800002A3FF449ABBBF1000F3FF445AB03FB8A
:1042080000F309930BFB03F316930C9B109300EB3D
:1042180040020693002341001493D31CCDF820B02C
:10422800029204919B46109B0393002303990593E4
:1042380000283DD0002426462346A446BEF1000FA0
:104248004ED1CA1C01EB0B0512F8038C434412F83B
:10425800028C0332464412F8048C95424444F3D14C
:10426800029A8A180CF1010C604502EB0A01E5D1AB
:10427800079AD340BEF1000F20D1069A0799137010
:104288001346CE40CC400333567094700693039A7D
:104298000999059B0A440392089A03449A42059394
:1042A80040F2C180019B039993F888E00028C1D1AE
:1042B800034604460646BEF1000FDED0BEF1010FEC
:1042C80000F0A080BEF1020F00F0A8809BB29A0116
:1042D80042EAC3221343069A22F8023B0692D6E723
:1042E800BEF1010F0FD0BEF1020F1ED08846002587
:1042F80038F8022B013502F01F02A8421344F7D107
:10430800049A8A18AEE78846002538F8022B01354A
:10431800C2F3841903EBD223A84202F01F024E44D1
:104328001444F2D1049A8A189CE70A1811F8015B20
:104338008A422B44FAD195E72D2202FB0EF208EBB4
:104348006212A2F3C502172101FB0EF10B2000FB3C
:104358000C11A8EB6111A1F3C501712000FB0CF051
:1043680008EBA010A0F3C50040EA811040EAC2297A
:104378000135AB4524F8029B27D116E732460233B4
:10438800B2F9009002362D2202FB0EF209EB6212FE
:10439800A2F3C502172101FB0EF10B2000FB0C1143
:1043A800A9EB6111A1F3C501712000FB0CF009EB29
:1043B800A010A0F3C50040EA811040EAC2280135E8
:1043C800AB4524F8028B7FF6F0AEB3F900C0B3F921
:1043D80080E0BBF1100FACF1800CAEF1800ECDD1B6
:1043E800082D05F0010208BF703603EB4203324680
:1043F800C6E7082D05F0010208BF703603EB42033B
:104408003146A7E6079AD440D64044EAC323069A21
:1044180043EA861322F8023B069238E7069A02F826
:10442800013B069233E7109A1699149B0A4410929E
:104438000A9A03449A4214930DD9019B93F888E091
:10444800F1E6029A53082033072A06EB03137FF696
:104458006CAE803669E6019BDDF820B093F80D80DC
:10446800FFF712BA019B0A99D3F88C4001FB0BF3B2
:1044780004EB430234F91390B2F980C0A9F1800922
:10448800ACF1800C00293FF4FFA9BBF1000F3FF409
:10449800FBA94FF0000A0C9BDDF804E0CDF808A05A
:1044A8008034002522E02D2000FB0CF006EB601084
:1044B80080F3080A172000FB0CF10B2000FB091001
:1044C800A6EB601080F30808712000FB09F006EBEA
:1044D800A01080F3080283F800A083F801809A7086
:1044E80003330835AB4504F1800416D99EF88820BB
:1044F80034F9806C002AD6D0012A1BD0022A38D081
:10450800A6F3C50040EA801242EAC0220835AB454E
:1045180023F8022B04F18004E8D8029A0A99083299
:104528009142029228D9082ADEF88C40B8D104F5C5
:104538008074B5E72D2202FB0CF206EB6212A2F39F
:10454800C502172101FB0CF10B2000FB0911A6EB9A
:104558006111A1F3C501712000FB09F006EBA01061
:10456800A0F3C50040EA811040EAC22823F8028B74
:10457800B7E703F8016BB4E7019B93F80D80FFF7E9
:1045880083B96442E4B2002C3FF402A92046FFF745
:10459800F1BA012000FA08F04FEA48030793ABEBA1
:1045A800000ABEF1030F23D0012320E6D2E900154B
:1045B800022690464FF48062404649B9D8F8085020
:1045C800D8F8983029469847014600283FF478AC37
:1045D80015F8013B012E43EA042401F1FF31A4B28E
:1045E8000AD1019BC3E9001556E5BEF1010FD8D1E8
:1045F8004FEA4A0A0223FAE50126DBE70520FFF71E
:10460800B9BA34464E46D1468A46EDE4019A9B1B18
:10461800137303F01F031466DC402246F1E400BF65
:10462800F8B5456A04462B685F06C3F38012FAD4CE
:104638002B6862F3CB232B602B6843F040032B607D
:10464800236C13B1B4F844205A610B78012B35D090
:10465800022B4DD04BB1236C13B1B4F844201A612E
:104668002B686FF386132B60F8BD636AA06B4A78DA
:10467800A68F46611A739A689607FCD59A68100641
:10468800FCD48F7801F1030E002F37D007F1030C0B
:104698008C447146636AA06B11F8012BA68F0661E2
:1046A8001A739A689207FCD59A681606FCD48C454A
:1046B800F0D10EEB07010B78012BC9D14F7801F12E
:1046C800020EDFB107F1020C8C447146636AA06BDD
:1046D80011F8012BA68F06611A739A689007FCD50A
:1046E8009A681206FCD48C45F0D10EEB0701E2E77C
:1046F80048788E1CFEF7B8FA3146A6E77146A4E75B
:104708002DE9F04F83B01F46BDF938300093BDF94D
:104718003C30BDF83090BDF834809DF840A09DF83D
:1047280058B001930C46002900F0E28000210546AC
:1047380016462046742200F0E1FCDDF854C084F8E7
:1047480048B0BCE80F0004F1240EAEE80F00BCE846
:104758000F00AEE80F00DCF80030CEF80030A26A97
:10476800002A4ED0E36A03EB830302EB8302A2F133
:104778000C0152F80C3C6FF3000342F80C3C0B6838
:1047880013F00103FBD1BBF1010F10D0BBF1020FF5
:1047980019D152F80C3C012161F3092342F80C3C71
:1047A80052F80C3C61F38B2342F80C3C0BE052F8B6
:1047B8000C1C63F3092142F80C1C52F80C1C63F31F
:1047C8008B2142F80C1C52F80C3C6FF3C30342F8DF
:1047D8000C3C52F80C3C6FF3820342F80C3C52F844
:1047E8000C3C43F0020342F80C3C52F80C3C6FF3CB
:1047F800861342F80C3C52F80C3C43F0800342F814
:104808000C3CB742394638BF3146BE4228BF3E4607
:10481800BAF1000F3CD1009B6381019BA381A68064
:10482800E180A4F80090A4F80280B1454DD3414539
:104838004BD8119B002B48D0129B002B45D0119AC6
:104848006261129AA261139AE26117AB149A22620A
:104858000FCB002704F14C0684F808A086E80F0067
:10486800C4E91B7784F86470002D41D02B6F4BB1DD
:1048780001221D461B6F511C1046CAB2002BF8D1ED
:1048880084F864002046E5662C6703B0BDE8F08F25
:10489800BAF1020F22D0BAF1010F2DD0BAF1030FED
:1048A80013D1009BA381019BA8EB03035B1A6381CF
:1048B80032464B46A180E680A4F80080A4F8029016
:1048C8000E46C14611469846AFE77422002120469D
:1048D80000F014FC002003B0BDE8F08F009BA9EBAA
:1048E8000302019B921BA8EB030362815B1A95E705
:1048F800204603B0BDE8F08F019B6381009BA9EBC4
:1049080003039B1BA381D3E7036B10B5044653B184
:10491800828E5A611920FEF7A7F9236BA28E1A61BD
:104928001920FEF7A1F96369207A984701462046C5
:10493800FFF776FE94F85A10E26C64290B4628BFFC
:10494800642384F85A308AB1D16A104801FB03F312
:10495800216DA0FB03035B09062906D8DFE801F0F7
:104968000E05100512050400136410BD636D002BBD
:10497800FBD0B4F8582039B11A6110BD536310BD8B
:10498800936310BDD36310BD5A6110BD1F85EB51F1
:1049980010B5C4888388013C82B00022A4B2013BD0
:1049A800CDE900419BB2114600F093FA02B010BD68
:1049B8002DE9F04F8BB0AC4C05919346159A149F96
:1049C8009DF85CC004EA1224C2F3C40152092143D1
:1049D80002F4F8620A4390F8481092B2012904924E
:1049E800169A00F03581049D9F4EC2F3C40406EA6E
:1049F80012265209344302F4F8622243012994B280
:104A080001D164BAA4B297F808A09A4503D87A7A73
:104A18009A4280F085804FF0000A397801F1FF381A
:104A28004FEAE80808F10108B8F1040F75DC7A6864
:104A38007B7808FB0AFA03FB0A2A4FEAC802013A04
:104A480001269640BCF1000F6FD0002B65D0049A68
:104A5800149752BA92B24FF00009B8F1010F0792B9
:104A6800CDF80C905F4653D0B8F1020F00F0E0800B
:104A7800B8F1030F00F0DF80B8F1040F08BFDAF8CF
:104A88000090C244002948D00FFA87FBBBF1000F01
:104A980034DB059C002503E00134A942A4B22BDDD8
:104AA80009FA05F3334205F10105F5D0838822B2EE
:104AB8009342F1DDC3885B452346EDDD002AEBDB3D
:104AC80021463A460097069000F02AF90698079979
:104AD80090F84820049B012A08BF0B460DF12601D7
:104AE8000122ADF8263000F07AF9149B069819785F
:104AF8000134A942A4B2D3DC149B5B78039A013237
:104B08009342039209DD0137B8F1010FBFB2ABD16F
:104B18009AF80090C2440029B6D10BB0BDE8F08FD6
:104B2800A3EB0A0A5FFA8AFA77E70BF1FF3213441C
:104B38009BB20093059BD0F824900390013B0B4453
:104B48005A4605999BB200F0EBF80398016C11B135
:104B5800B0F844304B61836B828F1A61D9F800300A
:104B68006FF3CB23C9F8003090F84830022B73D08C
:104B7800D9F8003043F04003C9F800307B78002BA7
:104B88003DD097F800E04FF0000CB8F1010F7FD04E
:104B9800B8F1020F7FD0B8F1030F7FD0DAF8001018
:104BA800C244BEF1000F25D0002201FA02F33342BD
:104BB80014BFAE46A646D9F808309B07FBD590F837
:104BC8004830022B52D1C9F80CE097F800E00132C6
:104BD80096450EDD01FA02F3334214BFAB46A346F5
:104BE800D9F808309B07FBD501329645C9F80CB0B7
:104BF800F0DC7B780CF1010C6345C6DC016CD9F85C
:104C080008309A07FBD5D9F80830C3F3C0121B0641
:104C1800F9D4D9F8003062F38613C9F800300029B6
:104C28003FF47BAFB0F844300B610BB0BDE8F08FB8
:104C3800BAF8009025E79AF802909AF801204FEA0E
:104C4800094949EA02299AF8002049EA020918E7BD
:104C5800049C65BAADB2C7E6D9F8003043F40063E6
:104C6800C9F8003084E700BF00F8FFFF5FFA8EF351
:104C780089F80C30CEF3072ED9F808309B07FBD5FE
:104C880089F80CE097F800E0013272458DDBB0E757
:104C98009AF8001084E7BAF8001081E79AF8021031
:104CA8009AF80120090441EA02219AF800201143E8
:104CB80076E700BF2DE9F04F1F4685B01B780E9EA2
:104CC8009DF844A0DDE90F8905460C46934603B3D9
:104CD80096F800C0AA88A4449445284609DD71784E
:104CE800EC888B441FFA8BFB5944A1424FF0000417
:104CF8000FDC2146CDE9029ACDE900685A46FFF754
:104D080057FE96F800C017F8013F6444A4B2002B80
:104D1800E0D1EC81A5F810B005B0BDE8F08F00BF78
:104D280030B52C25B0F80CE0BDF80C407444724442
:104D380034B42B25B0F80AE003EB0E0401EB0E03A4
:104D48002A223CB4D0F824E0036C846BB0F84450B9
:104D5800B0F83CC0DEF80000010010F04000F9D1C6
:104D680021F42C4141F04001CEF8001003B15D61FF
:104D7800C4F814C001BC8EF80C00DEF8081011F05D
:104D88000201FAD0DEF8081011F08001FAD12C28BF
:104D98001AD0C4F810C0022201BC4FEA10218EF8C4
:104DA8000C10DEF8081011F00201FAD08EF80C0091
:104DB800DEF808108900FBD0013AEDD1DEF80810C2
:104DC80011F08001FAD1D3E703B11D61DEF80000CC
:104DD80020F0400040F40060CEF8000030BD30B54F
:104DE8006D40D0F824E0DEF800309C4613F0400314
:104DF800F9D14CF0400CCEF800C0036C1BB1B0F8F0
:104E080044C0C3F814C0846B808F20610888CEF832
:104E18000C002D4305B90231DEF8080010F002003D
:104E2800FAD0013AF2D1DEF8080010F08000FAD189
:104E38000BB1C3F810C0DEF8000020F04000CEF837
:104E4800000030BDD0F828C05CEA0C0C3FF4C7AFB6
:104E580030B56D40D0F824E0DEF800301C0013F0C7
:104E680040037FF4C0AF44F04004CEF80040DEF8C1
:104E7800044044F00204CEF80440036C13B1B0F8C7
:104E880044405C61836B848F1C6100F16004C06ADC
:104E98000138142300FB03CC0CF108004FF6FF7314
:104EA8009A42CEBFD21A13460022226043600EF106
:104EB8000C0EC0F808E0C16001682D430CBF41F03A
:104EC800800121F0800141F0010121F040010160E1
:104ED80030BD30B59942C2BF8E4619467346BDF8FB
:104EE8000C40A242C2BF964622467446B0F804E07F
:104EF800AEF1010E714531DCB0F806C0ACF1010C21
:104F080062452BDC7345C8BF73466445C8BF644619
:104F180082B000945D1A05F10105A41A05FB045539
:104F28000400FFF7FDFE02B00498C0F3C401C0F30B
:104F3800852241EA4211C0F3C44241EAC221A4F8E1
:104F48006810200000F168012A000125D0F828C067
:104F58005CEA0C0C3FF445AFFFF77CBF30BD30B5C1
:104F6800B0F804E0714521D201EB030CF4451DD8DB
:104F7800B0F806E0724519D2039C1519754515D885
:104F880004FB03F4013D82B00095ACF10103050078
:104F9800FFF7C6FE02B0280004992200059BBDE871
:104FA80030401B433FF41BAFFFF74CBF30BD000040
:104FB80000B5A1F101018A00012303FA02F343605D
:104FC800142201FB020000F10800016821F0010130
:104FD8000160016811F00101FBD1124B1B681A6EC8
:104FE8006AB14FF6FF718A42CEBF521A11460022AB
:104FF80041601A66016841F00101016000BD586A0C
:10500800416821F002014160816811F08001FBD103
:105018001A6C12B1B3F844101161016821F0400113
:10502800016000BD2492002058B102280ED001284A
:1050380011D003280A4814BF0023F82380F8413010
:1050480070470748482380F84130704704489C233C
:1050580080F84130704702482C2380F8413070476F
:105068000C01002010B4074C49BA618120715BBA69
:10507800000A110AE07061712046A271A3815DF8EF
:10508800044B7047A001002000487047B40100207D
:1050980000487047BC01002070B50D4D0D4C641BD5
:1050A800A4100026A64209D10B4D0C4C00F072F852
:1050B800641BA4100026A64205D170BD55F8043B18
:1050C80098470136EEE755F8043B98470136F2E772
:1050D800A05E0008A05E0008A05E0008A85E0008A8
:1050E8000A44914200F1FF3300D1704710B511F81E
:1050F800014B03F8014F9142F9D110BD0244034618
:10510800934200D1704703F8011BF9E7F0B51F4C33
:105118008BB005460B466E4604F1200C206861688A
:10512800374603C7083464453E46F7D121793971BB
:10513800911E2068386022294FF0000104D91970A7
:105148000B4618460BB0F0BD581E8446B5FBF2F767
:1051580002FB175628366E440C4616F8286C0CF8D5
:10516800016F2E46B24201F101013D46EED90022FF
:105178005A541919A51AAA42E3DA10F8015F0E78F1
:105188000670013201F80159F4E700BF785E0008A3
:10519800FFF7BCBFF8B500BFF8BC08BC9E46704717
:0C51A800F8B500BFF8BC08BC9E4670477C
:1051B40000040040060000000000000000005A0047
:1051C4004D43553A00000000580000002E00000036
:1051D40002040608020C0810000000000102030487
:1051E4000000000000000000010203040607080993
:1051F4000000000000000000010203040607080983
:1052040041727465727900004154333220566972D8
:105214007475616C20436F6D20506F727420200090
:105224005669727475616C20436F6D506F7274208F
:10523400496E746572666163650000005669727434
:1052440075616C20436F6D506F727420436F6E668E
:10525400696700000020622CCF29A02500202419B2
:105264005111D408622C903DFE393134622CDF2276
:1052740005183E0CCF29FE39A0362931CF29D92073
:10528400A016890BA025313429313E2CA025901D70
:105294005D14610A0020622CCF29A0250020241966
:1052A4005111D4082419DF22D920901D2419C113C7
:1052B4009B0DEF0651110518A0165D1451119B0D9D
:1052C4005F09C704D4083E0C890B610AD408EF06B1
:1052D400C7046F02000108100902030A11182019FB
:1052E400120B04050C131A21283029221B140D0655
:1052F400070E151C232A313839322B241D160F179B
:105304001E252C333A3B342D261F272E353C3D36A3
:105314002F373E3F000000000000000000000000A6
:105324000000000808080808080800080000000039
:10533400141414000000000000000000000A0A3FDA
:105344001414147E282800000000081C22201C02CB
:10535400221C0800000000205122040810224502EB
:10536400000000001820201030494A443B0000008F
:105374000008080800000000000000000000040805
:105384000810101010100808040000100808040485
:1053940004040408081000000000361C7F1C3600BA
:1053A400000000000000000808087F08080800004A
:1053B40000000000000000000000081000000000D1
:1053C400000000007F00000000000000000000005A
:1053D4000000000008000000000001020408102082
:1053E4004000000000001C222222222222221C0053
:1053F40000000008380808080808083E00000000FB
:105404001C220202040810203E000000001C22029C
:10541400020C0202221C00000000040C0C141424D0
:105424003E040E000000003E2020203C0202221C0C
:10543400000000000C1020203C2222221C0000004E
:10544400003E2202040408081010000000001C2280
:1054540022221C2222221C000000001C2222221EC6
:105464000202041800000000000000080000000010
:105474000800000000000000080000000008100000
:1054840000000000040810201008040000000000C0
:1054940000003E003E000000000000000000100874
:1054A4000402040810000000001C22020204080880
:1054B4000008000000001E214D5555554E201C00CB
:1054C4000000001808081414223E2277000000008F
:1054D4007E2121213E2121217E000000001E214049
:1054E40040404040211E000000007C222121212157
:1054F40021227C000000007F2120243C2420217FE5
:10550400000000007F2120243C242020780000009B
:10551400001E214040404741211E00000000772228
:1055240022223E22222277000000003E08080808BA
:105534000808083E000000001E0404040404444457
:105544003800000000732224242838242273000029
:1055540000007C101010101010117F000000006378
:105564002236362A2A2222770000000067223232AD
:105574002A26262272000000001C2241414141419A
:10558400221C000000007E2121213E2020207800E2
:105594000000001C224141414141221C1B0000002B
:1055A4007E2121213E24242273000000003E41403C
:1055B400403E0101413E000000007F490808080800
:1055C40008081C0000000077222222222222221C2A
:1055D400000000007722222214141408080000009E
:1055E40000772222222A2A2A14140000000077229B
:1055F40014140814142277000000007722221414D3
:105604000808081C000000007F4204040810102150
:105614007F000000001C1010101010101010101C3F
:1056240000000040201008040201000000000000F7
:105634001C04040404040404041C000814220000D0
:105644000000000000000000000000000000000056
:10565400000000FF0000100800000000000000002F
:105664000000000000003C023E42423D00000000F9
:105674006020203E212121217E0000000000000046
:105684003E414040413E000000000602023E4242CC
:1056940042423F000000000000003E417F40413E86
:1056A400000000000C10103C101010103C00000012
:1056B400000000003F4242423E02023C00006020E3
:1056C400202C322222227700000000080000380833
:1056D4000808083E000000000400003C0404040420
:1056E40004043800006020202624283824630000A5
:1056F400000018080808080808083E000000000018
:105704000000742A2A2A2A6B000000000000006CA2
:105714003222222277000000000000003E41414175
:10572400413E000000000000007E212121213E2096
:105734007000000000003F424242423E0207000067
:1057440000000076191010107C000000000000001A
:105754003E413806413E000000000010103C10108D
:1057640010120C0000000000000066222222261BFA
:10577400000000000000007722221414080000003A
:105784000000000077222A2A141400000000000000
:105794000077221C1C227700000000000000772202
:1057A40022141408083000000000007E440810226F
:1057B4007E000000000608080808300808080806EB
:1057C4000008080808080808080808080800003045
:1057D400080808080608080808300000003149468F
:1057E400000000000000000000001C1C1C1C1C1C0D
:1057F4001C1C1C000000FE9210101E111115160036
:105804000004083F111010101010103800000000A0
:105814000000000000000000081000000408003E22
:1058240012101010103800000000000000000000EA
:1058340000002448000000000000000000000054A4
:105844000000000010107C10101010101000000058
:105854000010107C1010107C101000000000001CC0
:105864001C1C1C1C1C1C1C1C0000002152240810A5
:105874002052AD1200000000F84848484E4949C97A
:10588400CE0000000000000000040810080400001E
:105894000000EC4848487E494949EE00000408737A
:1058A400222424382424227300000000FE921010C5
:1058B4001E11111139000000007722222222222217
:1058C400227F08080000207C202C3222222272022F
:1058D40006000010080000000000000000000000A6
:1058E4000810000000000000000000000048240030
:1058F400000000000000000000001224000000006E
:1059040000000000000000000000183C1800000027
:105914000000000000000000700000000000000013
:105924000000000000FC0000000000000000000077
:105934000000000000000000000000FB55510000C2
:10594400000000000000000000000018282E494953
:10595400CE0000000000000000201008102000000D
:105964000000000000CC487E4949EE00000000041D
:10597400080066243824246300000000207C202CC6
:105984003222222277000000000000006622222238
:10599400223E080800000000000000000000000093
:1059A4000036087F222222221E02221C0000000050
:1059B4000036087F2222221E02221C00001E04043C
:1059C40004040444443800000000413E2222223EE4
:1059D400410000000001033F101010101010103897
:1059E4000000000008080808080008080808080063
:1059F400001E22504824120A4478000022007F210D
:105A040020243C2420217F000000001C224D515101
:105A14004D221C00000000001E2140447C44402113
:105A24001E000000000000000011224422110000AA
:105A340000000000003E0200000000000000000022
:105A4400000000007F000000000000001C225955E7
:105A54005955221C00000022003E080808080808C6
:105A6400083E0000000008140800000000000000C8
:105A74000000000808087F080808007F00000000F4
:105A84003E080808080808083E0000000008000056
:105A940038080808083E0000000000021E1010101C
:105AA4001010380000000000000022222222223CB4
:105AB400204000003F7A7A7A3A0A0A0A1B00000062
:105AC40000000000000008000000000000002200A8
